:020000040000FA
:100000000C945D000C9485000C9485000C94850084
:100010000C9485000C9485000C9485000C9485004C
:100020000C9485000C9485000C9485000C9485003C
:100030000C9485000C9485000C9485000C9485002C
:100040000C94D6020C9485000C94A4020C947E02AD
:100050000C9485000C9485000C9485000C9485000C
:100060000C9485000C9485000000000024002700FB
:100070002A0000000000250028002B0004040404CE
:100080000404040402020202020203030303030342
:10009000010204081020408001020408102001021F
:1000A00004081020000000080002010000030407FB
:1000B0000000000000000000460411241FBECFEF26
:1000C000D8E0DEBFCDBF11E0A0E0B1E0EAE3F9E0A7
:1000D00002C005900D92A233B107D9F721E0A2E347
:1000E000B1E001C01D92AA3DB207E1F710E0CDE5F5
:1000F000D0E004C02197FE010E949504CC35D107C1
:10010000C9F70E9420030C949B040C940000E6EABB
:10011000F0E02491E2E9F0E09491EEE7F0E0E49180
:10012000EE23C9F0222339F0233001F1A8F4213065
:1001300019F1223029F1F0E0EE0FFF1FEE58FF4FCA
:10014000A591B4912FB7F894EC91811126C09095A8
:100150009E239C932FBF08952730A9F02830C9F023
:10016000243049F7209180002F7D03C0209180002A
:100170002F7720938000DFCF24B52F7724BDDBCFEE
:1001800024B52F7DFBCF2091B0002F772093B000B6
:10019000D2CF2091B0002F7DF9CF9E2BDACF809166
:1001A000000120E4829FC001112480937C00809193
:1001B0007A00806480937A0080917A0086FDFCCF7B
:1001C00080917800909179000895AF92BF92CF927C
:1001D000DF92EF92FF920F931F93CF93DF936C0107
:1001E0007B018B01040F151FEB015E01AE18BF08E8
:1001F000C017D10759F06991D601ED91FC9101909A
:10020000F081E02DC6010995892B79F7C501DF91B1
:10021000CF911F910F91FF90EF90DF90CF90BF9003
:10022000AF900895FC01538D448D252F30E0842F2D
:1002300090E0821B930B541710F0CF96089501970E
:100240000895FC01918D828D981761F0A28DAE0FFB
:10025000BF2FB11D5D968C91928D9F5F9F73928F82
:1002600090E008958FEF9FEF0895FC01918D828DAE
:10027000981731F0828DE80FF11D858D90E008957B
:100280008FEF9FEF0895FC01918D228D892F90E0D3
:10029000805C9F4F821B91098F73992708958DE38E
:1002A00091E00E94430121E0892B09F420E0822F94
:1002B000089580E090E0892B29F00E944F01811180
:1002C0000C9400000895FC01A48DA80FB92FB11D56
:1002D000A35ABF4F2C91848D90E001968F7399277C
:1002E000848FA689B7892C93A089B1898C9183705A
:1002F00080648C93938D848D981306C00288F38953
:10030000E02D80818F7D80830895EF92FF920F937F
:100310001F93CF93DF93EC0181E0888F9B8D8C8DB1
:1003200098131AC0E889F989808185FF15C09FB7A5
:10033000F894EE89FF896083E889F9898081837068
:10034000806480839FBF81E090E0DF91CF911F9117
:100350000F91FF90EF900895F62E0B8D10E00F5F38
:100360001F4F0F731127E02E8C8D8E110CC00FB60E
:1003700007FCFACFE889F989808185FFF5CFCE01A6
:100380000E946301F1CFEB8DEC0FFD2FF11DE35ABD
:10039000FF4FF0829FB7F8940B8FEA89FB89808129
:1003A0008062CFCFCF93DF93EC01888D8823B9F0A3
:1003B000AA89BB89E889F9898C9185FD03C0808170
:1003C00086FD0DC00FB607FCF7CF8C9185FFF2CFED
:1003D000808185FFEDCFCE010E946301E9CFDF91DF
:1003E000CF9108953FB7F8948091370190913801EB
:1003F000A0913901B0913A0126B5A89B05C02F3FC5
:1004000019F00196A11DB11D3FBFBA2FA92F982F3A
:100410008827BC01CD01620F711D811D911D42E035
:10042000660F771F881F991F4A95D1F708958F92FD
:100430009F92AF92BF92CF92DF92EF92FF924B01C9
:100440005C010E94F2016B017C010E94F2016C19B7
:100450007D098E099F09683E734081059105A8F3C7
:1004600021E0821A9108A108B10888EEC80E83E045
:10047000D81EE11CF11C81149104A104B10429F7D8
:10048000FF90EF90DF90CF90BF90AF909F908F90B4
:100490000895FC0101900020E9F73197AF01481B56
:1004A000590BBC018DE391E00C94E500CF93DF93F1
:1004B0000E944902EC0183E191E00E9449028C0F05
:1004C0009D1FDF91CF91089586E191E00E94560231
:1004D00081E00E94870060ED77E080E090E00E947C
:1004E000170280E00E94870064E670E080E090E000
:1004F0000E9417028FE191E00C9456021F920F9216
:100500000FB60F9211242F933F934F935F936F93E6
:100510007F938F939F93AF93BF93EF93FF938DE35D
:1005200091E00E946301FF91EF91BF91AF919F9184
:100530008F917F916F915F914F913F912F910F908C
:100540000FBE0F901F9018951F920F920FB60F922B
:1005500011242F938F939F93EF93FF93E0914D017D
:10056000F0914E018081E0915301F091540182FDA0
:100570001BC09081809156018F5F8F73209157012E
:10058000821741F0E0915601F0E0E35CFE4F958F59
:1005900080935601FF91EF919F918F912F910F9032
:1005A0000FBE0F901F9018958081F4CF1F920F926D
:1005B0000FB60F9211242F933F938F939F93AF9376
:1005C000BF938091330190913401A0913501B09196
:1005D00036013091320123E0230F2D3758F5019673
:1005E000A11DB11D209332018093330190933401FA
:1005F000A0933501B0933601809137019091380175
:10060000A0913901B0913A010196A11DB11D8093CD
:10061000370190933801A0933901B0933A01BF910B
:10062000AF919F918F913F912F910F900FBE0F909F
:100630001F90189526E8230F0296A11DB11DD2CF59
:10064000CF93DF93CDB7DEB7A1970FB6F894DEBF97
:100650000FBECDBF789484B5826084BD84B58160BF
:1006600084BD85B5826085BD85B5816085BD80917D
:100670006E00816080936E001092810080918100F5
:1006800082608093810080918100816080938100ED
:10069000809180008160809380008091B1008460AF
:1006A0008093B1008091B00081608093B000809110
:1006B0007A00846080937A0080917A0082608093CF
:1006C0007A0080917A00816080937A0080917A002C
:1006D000806880937A001092C100EEE9F0E02491E6
:1006E000EAE8F0E084918823C9F090E0880F991F30
:1006F000FC01E859FF4F45915491FC01EE58FF4F22
:10070000A591B4919FB7F894FA0180812095822336
:1007100080838C91E22FE823EC939FBFE2E9F0E025
:100720002491EEE7F0E08491882399F090E0880F1F
:10073000991FFC01E859FF4FA591B491FC01EE58B7
:10074000FF4F859194918FB7F894EC91E22BEC9345
:100750008FBF81E0809300010E94CF00E0914D01A6
:10076000F0914E0182E08083E0914901F0914A01CD
:100770001082E0914B01F0914C018FEC808310923C
:100780005501E0915101F091520186E08083E091A2
:100790004F01F0915001808180618083E0914F0191
:1007A000F0915001808188608083E0914F01F09149
:1007B0005001808180688083E0914F01F091500169
:1007C00080818F7D808380E00E94870086E291E0B7
:1007D0000E94560268EE73E080E090E00E941702EB
:1007E0000E9464028AE0882E912CA12CB12C90E00A
:1007F000E92E90E0F92E0E94CF00833391055CF042
:1008000020913B0130913C012817390724F4909343
:100810003C0180933B0120913B0130913C0123330B
:10082000310544F1C29734F5032E000C440B550BEF
:1008300019A28E010F5D1F4FCA01B901A5019401D4
:100840000E947304605DF80162938F0121153105E8
:100850004105510589F7309719F0CF010E944902EF
:1008600083E191E00E94490210923C0110923B0109
:100870000E946402E114F10409F4BDCF0E944F010B
:10088000882309F4B8CF0E940000B5CFEDE3F1E072
:100890001382128288EE93E0A0E0B0E08483958317
:1008A000A683B78385E091E09183808385EC90E017
:1008B0009587848784EC90E09787868780EC90E02A
:1008C000918B808B81EC90E0938B828B82EC90E01B
:1008D000958B848B86EC90E0978B868B118E128E95
:1008E000138E148E0895A1E21A2EAA1BBB1BFD01C4
:1008F0000DC0AA1FBB1FEE1FFF1FA217B307E407FF
:10090000F50720F0A21BB30BE40BF50B661F771F56
:10091000881F991F1A9469F7609570958095909536
:100920009B01AC01BD01CF010895EE0FFF1F0590A3
:10093000F491E02D0994F894FFCF010000000085A8
:1009400001E5001201D2014301210135010D0A0028
:10095000524541524D2E2E2E005245414459210000
:0C0960004C4F4144494E472E2E2E000003
:107E0000112484B714BE81FFF0D085E080938100F7
:107E100082E08093C00088E18093C10086E0809377
:107E2000C20080E18093C4008EE0C9D0259A86E02C
:107E300020E33CEF91E0309385002093840096BBD3
:107E4000B09BFECF1D9AA8958150A9F7CC24DD24C4
:107E500088248394B5E0AB2EA1E19A2EF3E0BF2EE7
:107E6000A2D0813461F49FD0082FAFD0023811F036
:107E7000013811F484E001C083E08DD089C08234E0
:107E800011F484E103C0853419F485E0A6D080C0E4
:107E9000853579F488D0E82EFF2485D0082F10E0AE
:107EA000102F00270E291F29000F111F8ED06801E7
:107EB0006FC0863521F484E090D080E0DECF843638
:107EC00009F040C070D06FD0082F6DD080E0C81688
:107ED00080E7D80618F4F601B7BEE895C0E0D1E017
:107EE00062D089930C17E1F7F0E0CF16F0E7DF06D8
:107EF00018F0F601B7BEE89568D007B600FCFDCFD4
:107F0000A601A0E0B1E02C9130E011968C91119780
:107F100090E0982F8827822B932B1296FA010C0160
:107F200087BEE89511244E5F5F4FF1E0A038BF0790
:107F300051F7F601A7BEE89507B600FCFDCF97BE46
:107F4000E89526C08437B1F42ED02DD0F82E2BD052
:107F50003CD0F601EF2C8F010F5F1F4F84911BD097
:107F6000EA94F801C1F70894C11CD11CFA94CF0C13
:107F7000D11C0EC0853739F428D08EE10CD085E9AC
:107F80000AD08FE07ACF813511F488E018D01DD067
:107F900080E101D065CF982F8091C00085FFFCCF94
:107FA0009093C60008958091C00087FFFCCF809118
:107FB000C00084FD01C0A8958091C6000895E0E648
:107FC000F0E098E1908380830895EDDF803219F02E
:107FD00088E0F5DFFFCF84E1DECF1F93182FE3DFCA
:107FE0001150E9F7F2DF1F91089580E0E8DFEE27F6
:047FF000FF270994CA
:027FFE00040479
:00000001FF
